S017000068656C6C6F5F776F726C645F6D61696E2E686578D6
S113000097510000938101F717020020130282FF29
S1130010971200209382C289B3824240638B02000C
S113002003A301002320620091011102F112E3995C
S113003002FE971100209381A1871712002013025A
S1130040628A8142330232406308020023A05100D5
S113005091017112E31C02FE970100009381810655
S113006073905130970100009381C1099381010479
S11300707390713017010C20130141F87360043040
S1130080EF10304D0F1000000F00F00F3702016029
S1130090130282FF9301F00F9201BD01232032006D
S11300A00F1000000F00F00F37020160130282FFEF
S11300B09301E00E9201B9012320320013000000E5
S11300C019A00100F1BF232ED1FE232CE1FE232A27
S11300D0F1FE732720349377F70F6D83418B3E979E
S11300E00A07970700009387E701BA979843832686
S11300F0C1FF832741FF02871300000013000000A3
S113010000050000000500000005000000050000D7
S113011000050000000500000005000000050000C7
S113012000050000000500000005000000050000B7
S113013000050000000500000005000000050000A7
S113050045B60000000000000000000000000000EC
S11305106375D600B2952380A50082808280130182
S113052081FD26CE32CCB284325622D006D20D8A38
S11305302AC03AC63ECA26C42E841DE6225763F555
S1130540E702B307F740A69726843EC4AE848247E9
S1130550228636C2A685130500028297A2470504A7
S11305609246E316F4FE2684D2478DCF3247B30475
S1130570F700A247A6973EC8A2872684BE84C24736
S11305800345F4FF36C2338687408247A6857D142F
S11305908297B2479246E39487FEA2475247268445
S11305A0BA973EC4B257898B95CB6247A247B384AE
S11305B0E740225763F4E402A2852684BE8482477E
S11305C0268636C42EC2130500028297A25705045C
S11305D09245A2468504E364F4FE26C49250025474
S11305E02245F24413018102828021117243A253F5
S11305F026C88344810122CA1AC213F4230026C4E4
S11306002AC08252125339EC13F513002AC663111F
S1130610031063F357027D456362F51E1304000360
S11306209304000219A06389970085073305F70036
S1130630A30F85FEE3E957FE32450DC563F4670257
S1130640130500026385A70E13040003930400023C
S113065019A0638E970C85073305F700A30F85FE59
S1130660E39967FE13F5030141C113F5034031E932
S1130670639507041245C147630EF5121245894775
S11306806308F5162245930700032300F700854706
S113069035C13305F7009302D002230055008507C6
S11306A052440245C2441ECE1ACC61018DBD93F75B
S11306B0034063960712930700026380F20C630EF3
S11306C0F30A124441456308A40C12440945630C1F
S11306D0A40813050002E385A7FC3305F700930281
S11306E0000323005500850713050002E38AA7FAD7
S11306F0224545F113F5430029E913F583004DD153
S11307003305F7009302000223005500850749BF13
S11307100DC56392040613F5C30031EDE3F057F2FF
S11307207D45E37DF5EE93070002E3FD67F293F761
S11307300301B5FF93070002A5B7E3F557F27D4522
S1130740E37EF5EC9307000231BF3305F700930213
S1130750B0022300550052440245C2441ECE1ACCB6
S1130760850761016DBB13050002E38BA7F2330516
S1130770F70085074DA07D1355B71385F7FFE30BED
S113078005EE1244C142630E5406124489426303C7
S11307905408AA8799B713F5030215E51305000257
S11307A0E380A7F0B302F7008507130580072380D1
S11307B0A20005B793F7030295E793078007230088
S11307C0F700854719BF13050002E38BA7EC330537
S11307D0F70093028005230055008507DDBD9307CC
S11307E00002C5B5930780052300F7008547F5B5DA
S11307F0930720062300F7008547C5B59307000239
S113080025BD93F20302F917E39302FCB302F70048
S1130810AA8761BF3A95930220062300550055BD6F
S1130820130141FB86C4A2C2A6C02ACA2ECC3ECE66
S1130830B6423A8319E7E64713F70740BD9BBECC9F
S113084025EFE6479300100693F70702BDE38147BF
S113085018102544D9109304000221A0638997023B
S11308602E83337553029375F50F93830503869591
S113087093F5F50F6364A40093F5F30F850733052F
S1130880F700A30FB5FEB3555302E37953FCE645D5
S1130890524516C22EC8D6452EC6C6452EC4F245AC
S11308A02EC0E2459933A640164486441301C10480
S11308B082809300100461BF81471810C9BF1301DF
S11308C0C1F9B2823683A2CE86D03E84A6CCD98F1B
S11308D02AD42ED616D81ADA2656B65699E7E657EB
S11308E093F50740BD9BBEDCC5EDE65793F50702C3
S11308F093071006DDE193F5F70F3C183ED093877C
S113090065FF81443ED211A87247638F860893071E
S11309100002638DF4042A872E843A85A28532CEA0
S113092036CC3ACAEF10100292571375F50F52479E
S11309303303F500A547E246724693050503137396
S1130940F30F63E4A70013F3F50F825785043A8588
S1130950B3829700A285A38F62FE32CC36CA3ACE08
S1130960EF10A047D2466246E370D4FA5657E657D2
S113097032C23AC64657D25642563AC40347410693
S1130980B25522553AC002573EC8A687B939865097
S11309907644E64413014106828093071004A1BF04
S11309A03C1881443ED0D9B7E373C7F6C1B71301ED
S11309B081F986D2A6CEBE80BA843AC83ECA2687BA
S11309C08687B682AA80A2D0AE843284BE863A8557
S11309D0BE853A8606CE26D022DA16D2EF204064AF
S11309E0A65636D8B65636D4C65636CC631C05360B
S11309F09567C244524403A607F783A647F72685A2
S1130A00A285EF20A069634FA034956703A687F7FA
S1130A1083A6C7F72685A285EF20A0736344053417
S1130A204244D24401462285A6858146EF20607265
S1130A30634D0536C2473EDED2473ED6E24793F7C2
S1130A400740BECC99E399473ED8B25713D5470126
S1130A501375F57F130515C0EF308030956703A635
S1130A6007F883A647F8EF20207A956703A687F84E
S1130A7083A6C7F8EF105022B257C242956613936B
S1130A80C70003A606F92E8483A646F99355C3002E
S1130A903703F03F3363B3009A85AA841685EF20A9
S1130AA0303F956703A687F983A6C7F9EF20C07581
S1130AB02A86AE862685A285EF10101EEF30001E12
S1130AC02ADCEF30E029956703A607FA83A647FAE4
S1130AD0AA842E84EF204073956703A687FA83A621
S1130AE0C7FAEF10701BEF30601B1567032607FB76
S1130AF0832647FBAA87A28526853E84EF20C07003
S1130B00AA842285A2C02E84EF308025956703A68F
S1130B1087FB83A6C7FBEF20206F2A86AE86268537
S1130B20A285EF20F0362A86AE86AAC6AEC4EF2090
S1130B30A06D3647A647AA843A86BE863A852E8497
S1130B40BE85BACABEC8EF103015956603A606FC6A
S1130B5083A646FCAA822E832685A28596C69AC4BD
S1130B60EF10F07215668326C6FC032686FCEF1090
S1130B70B0122A86AE862685A285EF10507195663E
S1130B8003A606FD83A646FDEF1010112A86AE8645
S1130B902685A285EF10B06F5647C6479566AA848E
S1130BA02E8403A586FD83A5C6FD3A86BE86EF2066
S1130BB0302E2A86AE862685A285EF10F00DB64229
S1130BC026432A86AE8616859A85EF10506C956763
S1130BD003A607FE83A647FEEF10100C86460146C7
S1130BE09387F63FD207BE86EF2000624247B25792
S1130BF0AA843A86BE862E84EF20404A6348A01811
S1130C002687A287E254E2461306600C1384340656
S1130C10AD8233348600858A1104A9CAC242325394
S1130C20956603A686FE83A6C6FE16859A85BAC077
S1130C30BEC2EF20A0460647964763410502C24262
S1130C403253956603A606FF83A646FF16859A854A
S1130C50EF2020500647964763400516425619C6B2
S1130C60E646B336D000B306D64036D8A256814401
S1130C706374D400B3848640E246898AB6C091C6C0
S1130C8093361400B306D040F58CE25699CA325616
S1130C90C246B28536853A86BE86EF10505F2ADE9C
S1130CA02ED64247D24701463A85BE858146EF207B
S1130CB0404A635705003257B7070080B98F3ED6C4
S1130CC06247FD779387F77FF98F7255B2553EC41B
S1130CD0C2572A8792563EC05256AE8772458255F5
S1130CE026C2E528AA8425C8624792568255131560
S1130CF0A701F2477D85019926861305550682973B
S1130D006253954782551357F341B34667003387BF
S1130D10E640724592563EC67D14A94713861400D8
S1130D203EC022C402C29357F301DD3C0647AA84A5
S1130D301DC3D2573304F540A257637EF400F24733
S1130D40925682552686130500028297A2570504FF
S1130D508504E366F4FE965006542685F644130192
S1130D6081068280D24642460654B687E2468255C0
S1130D707245B6D8A2569650F644B6D6C2563287B5
S1130D805256B6D492561301810681A8956703A6DC
S1130D9087FC83A6C7FC2685A285EF10504FE25737
S1130DA02A87FD173EDCAE87B1BDB7050080B3C707
S1130DB0950022DE3ED659B1C25663DED400338597
S1130DC096409306F5FF36D8E246014402DC93E6EA
S1130DD0064036CC61BD02D8C5BF5971B68286D6ED
S1130DE0A2D4B2802E84A6D2BE85AA84BE863A85B9
S1130DF03A863EC622CE3AC426CC06D016D2EF207E
S1130E002022D65746543ECAE6573EC86313051AF5
S1130E10956703A687F783A6C7F72245B245EF2057
S1130E2040336349051E956703A607F783A647F772
S1130E302245B245EF2080266348A0149567B2444A
S1130E4003A687FF83A6C7FF2245A685EF200025BA
S1130E506342A01A956703A6070083A647002245AC
S1130E60A685EF20002F63470518B24422450146AA
S1130E70A6858146EF20E02D6343051682C0C24754
S1130E8093F7074091E31944D800930504FEA28721
S1130E90A5461306000339A02300C700FD17050764
S1130EA06386B726B304F440E3E8F6FEB245224570
S1130EB03ED4EF20B05EA2579566938686D11397F1
S1130EC0370036973EDE5C4318432A843ED63AD434
S1130ED0EF2010692A86AE862245B245EF20407B7A
S1130EE02256B256EF2040322EDA2ADCEF2050612F
S1130EF02AD8EF20506D6253D2522A86AE861A85C4
S1130F009685EF20E078956703A387FA83A3C7FA51
S1130F102ADA1A869E862EDCEF204018956703A3F2
S1130F2087FA83A3C7FA4257F2576351A01C0507F7
S1130F303A853EDA3AD8EF2010692A86AE862255E1
S1130F40B255EF2000214257D2576344A000050454
S1130F50014763810710130300022946A5426384F5
S1130F60640CB376C702CC00850433859500938561
S1130F70F7FF93860603A30FD5FEB356C70263FBA0
S1130F80E21EAE873687E1BFC247918BA1E71567A2
S1130F90130707B28D47C246B6DAD246B6D82654EE
S1130FA092560256F2456245B650965465616FF00A
S1130FB00FD7BEDAD247265492560256F245B6509F
S1130FC026859654BED815678D471307C7B2656149
S1130FD06FF0EFD41567130747B291476DBF2246F0
S1130FE0A68601458145EF20A06A85472AC42EC6FE
S1130FF0BEC071B5C246A2D82654B6DCD24622473A
S1131000B247B6DA02569256F2456245B650965445
S1131010656171BAC2471567130707B3BEDAD247D1
S1131020BED89147ADBFC24705478D8B6383E70E9A
S1131030930700024247925602563AC25247F2457B
S113104062453AC0D800EFF08FCDB650265496547E
S1131050656182802285EF20B0502A86AE862245C3
S1131060B245EF20E062956703A787FA83A7C7FA22
S11310702AC43A86BE862EC6EF20A00D635F050003
S1131080956703A787FA83A7C7FA2245B2453A862C
S1131090BE86EF20A0006355A000937714003E9411
S11310A0130600022947E380C4F8B367E402850409
S11310B0D400A6963344E40293870703A38FF6FE75
S11310C07DF0C24705478D8B6387E7041307000251
S11310D0E380E4F68647C1C3DC10338797009306A8
S11310E0D002938714002300D7FEA9B75255E255C6
S11310F01A869E863ED83AD4EF20A0052257C257BE
S1131100E34905E46316070A0507A1B59304000241
S113111071BB93040002D247D5DB864781E7C247FF
S1131120B18B81C7D247FD173ECAD247E3F0F4FA28
S1131130930700029306000313070002E38AF4EE08
S113114052468504DC00A697A38FD7FEE380C4F83B
S1131150E399E4FEF1BDC247918BADE3C24793F638
S11311608700A687E38806ECD410B694850723800D
S1131170E4FEC9B5E38964EAA686130500031306F1
S1131180000291CD8506CC0013C7F6FFB6952697CD
S1131190A38FA5FE3E97E388C6E8E31507FEDC109F
S11311A0B6971307E002938416002380E7FECDBDB3
S11311B093761700E38F06D8050761BBDC103387ED
S11311C097009306B002938714002300D7FE9DB5C1
S11311D011E18280FD556F00503F01C59C41CC4117
S11311E0828782805D71A6C286C6A2C42ECE2ACC16
S11311F03AD4B684B286638A053E03C504008143AB
S1131200014465C5268339A8F2451AD21E86138483
S1131210130036D0E247829782561253A2830345C5
S1131220030079C1930750020503E31FF5FC95679A
S11312308145C142938087B303450300130713001C
S11312403A86930705FE93F7F70F63E6F2008A07E1
S113125086979C438287930705FD93F7F70FA54272
S113126063FBF20E9307A0026302F5121A86814211
S11312703A839307E00281446308F508930785F9EC
S113128093F7F70F4947636EF70015678A0713074B
S1131290C7B7BA979C4382870345160093E50510A8
S11312A005039307B5FD93F7F70F13073005E36DB7
S11312B0F7F415678A07130787BCBA979C4382879C
S11312C093E525003A838DBF93E545003A83ADB796
S11312D093E505013A838DB793E585003A83A9BF69
S11312E093E515003A8389BF1E8463E4D300938396
S11312F0F6FFF245E24701451E868297B6402285F5
S1131300264496446161828003451600254793E58F
S11313100540930705FD93F7F70F6379F7009307EB
S1131320A0026308F52C1A86050389BF13962400CE
S113133026969A87060605032A9603450300930416
S113134006FD930005FD93F0F00FE37117FE1A8676
S11313501383270025B781422546168411A005076B
S113136093122400A2928602AA92034507009A8748
S1131370138402FD930005FD93F0F00F3A83E370AC
S113138016FEA2823A8613832700E5B5A25783A2EC
S11313900700910763C70200034513003ED4090305
S11313A0C9BD0345130093E52500B30250403ED464
S11313B00903C1B5930780076309F54693078005C0
S11313C0630BF52C9307F0066302F54A9307200696
S11313D06309F54E1307900693F0F5FE93F7054065
S11313E0631BE550639B074493F5052029446395EB
S11313F0053E225793F7001011073AD06393074A2A
S113140093F7000463800744A25783C707003E870D
S11314101AD61E8606C616C426C222C0FD83F2450D
S1131420624536D2EFF0CFBF825792563253AA8329
S11314303ED4F5B3034516009307C006E310F5E662
S11314400345260093E505301303360099BD034593
S1131450160093E505200503A9B503451600930777
S11314608006630EF52093E5050805031DBD93076B
S113147060046306F51E22541E8662451C401AD67B
S113148021043ED082538327C4FF2EC4F2451E8715
S113149016C226C036D03ED2893282563253AA832F
S11314A022D4B5BBA257984391073EDA3AD00345FC
S11314B00700639F04147957630305420254050728
S11314C0229719A06304871C834714000504FDFBBD
S11314D08257B307F4403ED893F705403ED289C7FC
S11314E0C25763F3F40026D893F725003EDC638DDE
S11314F00728630905201E861ED426D616DE3684E8
S11315009AC011A02686925799C732579307F7FFBE
S11315106304071E3ED6E247F245A28693041600F2
S11315208297A2570257B387F440BA9703C50700BE
S113153071F9F2520643A2862684E2576393071C8C
S1131540D257A2833ED4E1B9F2451AD21E8613843F
S1131550130036D01305500275B9225493E51502D1
S1131560A147184062452EC6F2453EC4C1471E86B7
S11315703EC026C281471AD236D01104EFF04FAADA
S113158082561253AA8322D459B9A25793841300C2
S1131590898991073ED62684638F0518A257F245A0
S11315A01ADA03C50700E24716D81E861ED236D0C3
S11315B082979253C252054782565253969363754B
S11315C0572A1ED0B6841AD2E247F2452286A6864E
S11315D013050002829782570504E317F4FE1253A1
S11315E0BE83A686B2573ED41DB99307C0513ECCE4
S11315F029B1225703452600130336000443090684
S113160093C7F4FFFD87FD8C930747003ED4BDB11B
S11316106307052C1387F4FF55B59377F50D13076E
S113162070046381E704930750046307F5042254AC
S11316301E8662451C401AD621043ED0825383275D
S1131640C4FF2EC4F2451E8716C226C036D03ED231
S1131650EFF0EFB582563253AA8322D4C9B693E58C
S1131660050211BD8567938707801375D50F13078E
S11316705004DD8DE31DE5FA93E505024DBF0345F6
S1131680260093E5050C1303360021B98257B307EE
S1131690F7403ED891B593F035FF93F7054093E0BA
S11316A000024144638D071893F0E0FF930790060E
S11316B093F50020E30DF5D293074006E309F5D234
S11316C06393051C225793F7001011073AD0639CCB
S11316D0071E93F700046395071893F700086382C5
S11316E00720A25703D707001AD61E8606C616C4BB
S11316F026C222C0814725B3A286F2520643328411
S11317002DBDA283C25763F7570C338472001D8C1E
S113171022D09E8436841AD2E247F2452686A286D7
S113172013050002829782578504E397F4FEA2868C
S113173012533E8431B50547637C571A1384F3FF73
S1131740169422D21AD81E8411A08504E247F245C9
S1131750228636D013050002829792578256268439
S1131760E395F4FE1254425393831400A257F245B6
S11317701AD803C50700E2471ED236D022868297C4
S1131780825692534253B9BD425793071700637D63
S1131790571433847200198C26D622D49E8416D80A
S11317A036841ADEE247F2452686A2861305000235
S11317B08297A2578504E39797FE8257C252A68365
S11317C003C50700938712003ED8B2547253A28611
S11317D0E31305D21E84ADB31AD222531E86032509
S11317E043008325030006CA9357F541BD8D2AD0D3
S11317F03D8D3387F540B307F5400255B3B3E5009B
S113180016C89355F50126C622C202C42EC0B3875A
S11318107740F24562451304830036D0EFF02F8AF7
S113182082561253AA8322D4DDBA93F70540414469
S113183093F035FFE38C07E685BD2944B5B593F5F0
S11318400520BDBD93F70008D9C3A25783970700AD
S113185013D6F74033C7C700118F420741834DBEEB
S1131860A25703C7070049B5A683ADBB2144AE8088
S11318701307400693F700406311E50893F5002031
S1131880E38707B615B51AD222531E860327030031
S11318908327430006CA16C826C622C202C402C051
S11318A08DBFA2571AD61E869C4306C616C413D7EC
S11318B0F741B345F70026C222C0FD833387E540D4
S11318C0B9BE09446DB7A2571AD6984339BDA25779
S11318D09C4313D6F7413347F600118F15BE02D847
S11318E0E5BEA257984309B53ED8E31605C0DDB559
S11318F01E84A683A5BD2944A5BF868515BF5111A5
S113190022C206C42A840345050019C5FD550504F1
S11319106D29034504007DF9FD5529457D21A2402B
S11319201244014531018280FD5545A15111FD55F7
S11319301375F50F06C45129A24001453101828077
S1131940130181FD1303410136CEAA8605652ECA13
S113195032CC3AD08A851A877D561305051D06C8F0
S11319603ED21AC24130C240130181028280011169
S11319701303010136CAAE86AA8532C83ACC7D5615
S11319801A871305005106C63ECE1AC0A138B240CC
S11319900561828011111303010136C8B2862E86B7
S11319A0AA853ACA130500511A8706C63ECC1AC046
S11319B01538B240710182804111AA8605652E87CF
S11319C07D568A851305051D06C62938B240410196
S11319D082803687B2862E86AA851305005119B0F7
S11319E01301C1FD13038101AA830565AE8236CCC0
S11319F03ACEB2864C001A877D561305A51D06CA39
S1131A003ED01AC01EC216C4EFF0CFFDD24013015F
S1131A1041028280B7E7F50593870710B3D7B70271
S1131A2058410CC58346C70093E606F893F6F60FB3
S1131A302306D70093D6470093F6F60FB18323000D
S1131A40D70093F7F70F2302F7008347C70093F7F4
S1131A50F7072306F70082804CC585476383F504A6
S1131A608947638DF500638305008280584183476D
S1131A70C70093F7770F2306F70082805841834706
S1131A80C70093F7F70F93E787002306F700584141
S1131A908347C70093F7F70F93E707012306F7007F
S1131AA0828058418347C70093F7F70F93E7870075
S1131AB02306F70058418347C70093F7F70E230620
S1131AC0F70082804CC98947638DF50463E5B7024A
S1131AD06381050458418347C70093F7D70F230652
S1131AE0F70058418347C70093F7F70F93E71700B0
S1131AF02306F70082808D47639CF5005841834795
S1131B00C70093F7F70F93E737002306F7008280A7
S1131B10828058418347C70093F7C70F2306F70015
S1131B20828058418347C70093F7E70F2306F700E5
S1131B3058418347C70093F7F70F93E7270023061D
S1131B40F70082800CC999CD8547639CF500584104
S1131B508347C70093F7F70F93E747002306F7007F
S1131B608280828058418347C70093F7B70F2306CA
S1131B70F70082800CCD82804CCD828081E9B757FA
S1131B800140232005005CC1014582800545828017
S1131B901841C167FD176301F70A9441B7E7F505DA
S1131BA093870710B3D7D7025841511106C422C2F4
S1131BB026C014C58346C700AE842A8493E606F87B
S1131BC093F6F60F2306D70093D6470093F6F60F45
S1131BD0B1832300D70093F7F70F2302F70083475D
S1131BE0C70093F7F7072306F7008C45B535CC44B7
S1131BF02285C93DDC401CC885CB0547638CE700C2
S1131C009848DC48A24018CC5CCC1244824401457C
S1131C103101828058408347C70093F7F70F93E759
S1131C2047002306F700E9BF58408347C70093F7EE
S1131C30B70F2306F700E9B705458280C167FD1792
S1131C40232C0500232E05001CC1014582805C4D18
S1131C5099CB58418347470193F70702E5DF2300F7
S1131C60B7000145828005458280014582800111CB
S1131C70AA872E8522CC26CA3EC8BE8406CE2EC490
S1131C8032C6EF20300913041500935784001383E0
S1131C90170089071314830023A004003EC031A851
S1131CA063E5D7043EC2EF20601B924763E48700DC
S1131CB013841700824785073EC02285EF20401910
S1131CC0B2462246A285AA8429C921330247AA879B
S1131CD09306F4FF268513148700E3D307FCEF2053
S1131CE0E017824713948700F1B799E7F240624402
S1131CF0D2443E85056182803EC0EF20807DC2478C
S1131D0088C3824709CD2685EF2040158247F240DB
S1131D106244D2443E8505618280D157C1BF4247A7
S1131D2004C3E9B701111303010132C81A8606C6B8
S1131D3036CA3ACC3ECE1AC01D3FB24005618280FD
S1131D40B7E700E03707810023A0070023A8E75086
S1131D50828015655111130585D606C422C2453605
S1131D601565130585D7613E15658545130545D968
S1131D70C13E15658945130505DAD93615658145D2
S1131D801305C5DA753E8D4705448945A2822E8325
S1131D90338462006300F4021565130585DC4D3657
S1131DA01565A285130585DD613EA24012440145F7
S1131DB0310182801565130585DB5936D5B7014598
S1131DC082800145828001458280B7060160938646
S1131DD086FF88C2828082808280611122C226C0EE
S1131DE0AA82AE87639E0620B6853283AA8397367D
S1131DF000009386260863F2C70C41673E8563772B
S1131E00E60A1307F00F3337C7000E07B355E60091
S1131E10AE9683C606003697930600023384E640E6
S1131E20638CE600B396870033D7E2003313860051
S1131E303365D700B393820093550301B356B502BB
S1131E4013160301418293D703013377B502368514
S1131E50B302D6024207D98F63FC57009A971385C1
S1131E60F6FF63E7670063F557001385E6FF9A976B
S1131E70B387574033F7B702C20393D30301B3D7F1
S1131E80B7024207B36377003306F6023E8763FB6B
S1131E90C3009A931387F7FF63E6630063F4C300F8
S1131EA01387E7FF4205598D814555A8B705000101
S1131EB04147E36DB6F4614791BF01E605473353EB
S1131EC0C70241676371E30A1307F00F6373670086
S1131ED0A1453357B300BA9603C706009306000220
S1131EE02E973385E6406397E608B38767408545B8
S1131EF09352030113160301418213D70301B3F66E
S1131F005702B3D75702C206558F3304F6023E85F3
S1131F10637C87001A971385F7FF6367670063750F
S1131F2087001385E7FF1A97018FB3775702C2031F
S1131F3093D3030133575702C207B3E37700330641
S1131F40E602BA8763FBC3009A939307F7FF63E63D
S1131F50630063F4C3009307E7FF42055D8D1244F9
S1131F6082442101828037070001C145E363E3F61F
S1131F70E14585B73313A300B3D6E700B393A200BA
S1131F80B397A7001355030133D7E200B3D2A602D7
S1131F903366F70093170301C1839355060133F7A2
S1131FA0A602B386570242074D8F9685637CD700FD
S1131FB01A979385F2FF636767006375D70093856B
S1131FC0E2FF1A97B306D74033F7A602B3D6A602A8
S1131FD042073385D70293170601C183D98F368709
S1131FE063FCA7009A971387F6FF63E7670063F51E
S1131FF0A7001387E6FF9A97C205898FD98DCDBDB7
S113200063EFD512416763FFE6021307F00F33371E
S1132010D7000E0733D5E60097350000938585E594
S1132020AA9583C50500130500022E97B305E54064
S11320306311E5020545E3E4F6F233B6C200134545
S1132040160031BFB70500014147E3E5B6FC61471F
S1132050D1B73353E600B396B6003363D300B3D39A
S1132060E70013540301B3F68302131503014181FE
S113207033D7E200B397B700D98F13D707013316CC
S1132080B600B3D38302C206D98EB30475021E8789
S113209063FC96009A961387F3FF63E7660063F583
S11320A096001387E3FF9A96858EB3F38602C207E0
S11320B0C183B3D68602C203B3E7F3003305D50266
S11320C0B68363FCA7009A979383F6FF63E76700E0
S11320D063F5A7009383E6FF9A97898F41641315EC
S11320E00701336575001307F4FFB373E5009356D6
S11320F00501718F41823383E3023387E602B383A0
S1132100C302B386C602BA93135603011E966373C1
S1132110E600A29613570601BA9663E0D702E39548
S1132120D7D8C167FD177D8E42063373F300B3928F
S1132130B2001A968145E3F4C2E27D15B5B3814538
S1132140014531BD511122C426C2AA872E87639A44
S1132150061C36833284973600009386A6D163FA30
S1132160C50AC1626370560A9302F00F63F3C2009A
S11321702143B3526600969683C6060036939306AF
S11321800002B3826640638C6600B39555003353F6
S11321906500331456003367B300B31755009353E7
S11321A004013376770213150401418193D60701A4
S11321B0335777024206D18E3307E50263F8E6000F
S11321C0A29663E5860063F3E600A296998E33F740
S11321D07602C207C183B3D67602B306D5021315BD
S11321E00701C98F63F8D700A29763E5870063F3FB
S11321F0D700A297958F33D5570081452244924446
S113220031018280B70200014143E36456F6614321
S11322108DB701E605473354C70241676371E4088B
S11322201307F00F63738700214333576400BA9692
S113223003C60600130700023293B3026740631714
S11322406706818D9356040113150401418113D649
S1132250070133F7D502B3D5D5024207518FB30531
S1132260B5026378B7002297636587006373B7008C
S11322702297B305B74033F7D502C207C183B3D55C
S1132280D5024207D98F3305B50263F8A700A29798
S113229063E5870063F3A700A297898FA9BF370777
S11322A000014143E363E4F8614341B7331454004C
S11322B0B3D66500B31755003353650013550401B5
S11322C033F7A602B39555003366B30093150401A2
S11322D0C18113530601B3D6A602420733676700D0
S11322E0B386D5026378D70022976365870063734A
S11322F0D7002297B306D74033F7A602B3D6A60277
S11323004207B386D50293150601C181D98D63F8BE
S1132310D500A29563E5850063F3D500A295958D5C
S113232015B7E3EDD5EC416363F566049302F00F52
S113233033B3D2000E03B3D3660097320000938206
S113234062B39E9283C202009A9213030002B30303
S113235053406317530263E4B6006369C500B307CF
S1132360C540958D3335F5003387A5403E85BA8544
S113237071B5B70200014143E3EF56FA614365BF0B
S1132380B3967600335356003363D300B3D4550069
S11323901354030133575500B317750033D5840222
S11323A03EC0B3957500D98D1317030141833316CD
S11323B07600B3F78402B304A7029396070193D778
S11323C00501D58FAA8663FC97009A979306F5FFBB
S11323D063E7670063F597009306E5FF9A97858F97
S11323E033F58702C205C18133D487024205C98D02
S11323F033078702A28763FCE5009A959307F4FFED
S113240063E7650063F5E5009307E4FF9A95C20668
S11324104164DD8E3387E5409305F4FFB3F7B600DE
S113242093540601C182F18D3385B702B385B60298
S1132430B3879702B3869602AE9793540501A69785
S113244063F3B700A29693D50701AE96C165FD1557
S1132450ED8FC2076D8D3E956367D700631DD7006E
S1132460824763FAA7003306C5403335C5002A9373
S1132470B386664032858247B306D7403385A7408A
S1132480B3B5A700B385B640B3975500335575006F
S11324905D8DB3D575009DB3370310007D133111E5
S11324A0B377B30013D7450126C48E079374F77F1F
S11324B01357D501D98F3377D30013D3460122C6DE
S11324C01373F37F13D4F5010E0793D5F60106C8F1
S11324D09356D601558F0E050E06B38664406314D9
S11324E0B4226352D00E63180302B365C700638A33
S11324F005209385F6FF89E92A963335A600BA9715
S1132500AA9732858544B9A81303F07F639D6600BA
S11325109304F07F71AA9305F07F638BB418B70519
S113252080004D8FB6859306800363CAB608FD46C6
S113253063C1B606130300023303B340B316670046
S1132540B352B60033166600B3E656003336C00005
S1132550558E3357B7002A963335A6003E97B307F6
S1132560A7003285370780007D8F63030714850435
S11325701307F07F638BE448370780FF7D17F98FDB
S1132580135715000589598D1397F701598D8583C4
S113259005A2938605FE93020002B356D7000143B9
S11325A06388550013030004B305B3403313B70025
S11325B03366C3003336C000558E014769BF598E58
S11325C03336C000DDBFCDCAB30593408DE4B3E616
S11325D0A700638306429386F5FF99E63295BA977E
S11325E03336C500B29739BF9302F07F639D55001F
S11325F0BA87328531BF9306F07FE30BD3FEB7066B
S11326008000D58FAE869305800363C3D506FD4550
S113261063CAD50293020002B382D240B395570035
S1132620B353D50033155500B3E575003335A00019
S11326304D8DB3D7D7003295BA973336C500B297CC
S11326409A840DB7938506FE93030002B3D5B700B1
S113265081426388760093020004B386D240B39229
S1132660D70033E5A2003335A0004D8D8147E1B793
S11326705D8D3335A000DDBF9386140093F5E67FAE
S1132680BDE1B3E6A700A9E4638C0636B366C700D0
S113269085C22A96BA973335A600AA9737078000D1
S11326A07D8F328511C7370780FF7D17F98F8544E9
S11326B013777500630D07341377F50091466308AB
S11326C0D734130745003335A700AA973A8581A666
S11326D085D2598EE30E06E20144B7074000014556
S11326E09304F07F2DA69305F07F638EB6302A966F
S11326F03335A600BA97AA971395F7010582518D31
S11327008583B68475B76354D00C631F0306B36521
S1132710C700E5D99385F6FF91E93306C540333503
S1132720C500998F898F32858544B1A01303F07F4A
S1132730E38066DE9306800363C7B608FD4663CE76
S1132740B604130300023303B340B3166700B35255
S1132750B60033166600B3E656003336C000558E15
S11327603357B7003306C5403335C5003387E740D8
S1132770B307A7403285B706800033F7D7000DDBD7
S1132780FD16FD8E2A8355AA9305F07FE382B4F2E9
S1132790B70580004D8FB68571BF938605FE930201
S11327A00002B356D70001436388550013030004A5
S11327B0B305B3403313B7003366C3003336C000E8
S11327C0558E014745B7598E3336C000DDBFF9C277
S11327D0B302934095E8B3E6A7006388062893867E
S11327E0F2FF91EA3305A640B307F7403336A6005B
S11327F0918F2E8415BF9303F07F639F7200BA8775
S113280032859304F07F7DA09306F07FE309D3FE25
S1132810B7068000D58F96869302800363C8D206DC
S1132820FD4263CED20293030002B383D340B3923A
S113283077003354D50033157500B3E28200333585
S1132840A00033E5A200B3D7D7003305A640B307F1
S1132850F7403336A600918F9A842E8429BF938241
S113286006FE13040002B3D2570081436388860036
S113287093030004B386D340B393D70033E5A30096
S11328803335A00033E5A2008147C1B75D8D3335F0
S1132890A000DDBF9386140093F6E67FA5EA33E338
S11328A0A700B366C700A1E8631803006383061C8E
S11328B0BA8732852E84EDBBE38C06DE3303C54034
S11328C0B3326500B386E740B3865640B702800052
S11328D0B3F25600638A02003305A640B307F740FB
S11328E03336A600918FF9B73365D3006307051813
S11328F0B6871A8575BB6318030063820618BA8706
S113290032852E8431B1E38506C0F9B33303C54063
S1132910B3326500B386E740B3865640B702800001
S1132920B3F25600638B02063303A640B307F740A5
S113293033366600B386C7402E84B5C636851AC2C0
S113294036C0EF10204D82461243130785FFFD4722
S113295063C5E70693070002998FB396E600B35761
S1132960F300D58F3315E30063429708058F1306F0
S11329701700FD4663C9C60413070002118FB396FE
S1132980E700B355C5003315E500CD8E3335A000FF
S1132990558DB3D7C700814421BB3365D30051FDA6
S11329A081478144C9A81A8536C21AC0EF108046EF
S11329B0924602431305050249BF930785FDB317E9
S11329C0F300014555B705179305000233D7E70017
S11329D081466307B60093060004918EB396D70030
S11329E0558D3335A000598D814775B7998C3707BC
S11329F080FF7D17F98F6DB9BA873285AE844DB9E2
S1132A00BA87328575B19304F07F81470145370752
S1132A1080007D8F11CB85041307F07F6386E40665
S1132A20370780FF7D17F98F1397D7010D81598DD3
S1132A301307F07F8D836399E4005D8D814709C599
S1132A40B70708000145014413974401B706F07F16
S1132A50B207758FB1837E04D98FC24033E78700F4
S1132A603244A244BA8551018280BA873285968461
S1132A7091B581470145014459BF8147EDBF0145E7
S1132A800144B7074000A9B98147014571BF13014B
S1132A90C1FD26CC2A87B284AA8713D6F50113D5A3
S1132AA045011393C50006D022CE1375F57F32C4B9
S1132AB01353C30051C59305F07F6308B50E135437
S1132AC0D7010E03B7078000336464005D8C1306DE
S1132AD015C093173700014313D5460113D7F601E8
S1132AE09393C6001375F57F3AC693D3C30079CD8B
S1132AF01307F07F6307E51413D7D4018E03B36380
S1132B007700B7068000B3E3D300139734001305AE
S1132B1015C08146A245B244098E32C21316230061
S1132B20A58D558E2EC07D16B94563EDC51297252A
S1132B3000009385A52C0A062E9610422E96028636
S1132B403364E3003DC836C6630003041A853AC201
S1132B501AC0EF10202C02431247B246930555FFCA
S1132B60F14763CEB7027544930785FF0D8C331389
S1132B70F3003354870033646400B317F7009305FC
S1132B80D0C03386A54081BF3A851AC23AC0EF103F
S1132B906028B2461243024713050502C1B7130465
S1132BA085FD331487008147D9BF3364E30011C81E
S1132BB01A841306F07F0D4305B781470146054388
S1132BC021BF81471306F07F094339B733E79300E8
S1132BD049C3638403041E851ACA32C83EC21EC098
S1132BE0EF1040238243924742465243930255FFDB
S1132BF0714763425704F546130785FFB386564071
S1132C00B393E300B3D6D400B3E376003397E40080
S1132C109306D0C03385A640EDBD26851ECA1AC8CA
S1132C2032C23EC0EF10001FD243424312468247D5
S1132C301305050265BF930385FDB3937400014733
S1132C40C1BF33E7930011CB26871305F07F8D4670
S1132C50D1B581430145854675BD81431305F07F98
S1132C6089464DBD63E683006312742C63E0E72C50
S1132C701316F40193D617001395F7010580B36773
S1132C80D600A20393D4030133539402135687014D
S1132C9033667600931587001317060141833AC4FF
S1132CA093D6070133749402330767024204558CA8
S1132CB09A86637CE40032949306F3FF6367C4004E
S1132CC06375E4009306E3FF3294198CB3529402C3
S1132CD0131706014183C207C18333749402968398
S1132CE0330357024204C18F63FC6700B297938396
S1132CF0F2FF63E7C70063F567009383E2FFB297CF
S1132D00C2064164B3E676001307F4FFB3F2E600AB
S1132D10B38767406D8F13D30601B30357023AC4D8
S1132D203307E3023AC613D70501B302570233034C
S1132D30E3023247BA9213D703011697B242637380
S1132D405700229341647D1493520701618F420717
S1132D50B3F3830016931E9763E76700B683639EFD
S1132D606702637CE5022E95B332B500B292969762
S1132D709383F6FF6366F6006311F602636FB50092
S1132D8063E66700631BF3006379E5002E95938384
S1132D90E6FFB336B500B296B697B302E540338387
S1132DA06740333555003303A3407D5763006610F5
S1132DB03354930293170601C18393D602013387D8
S1132DC08702B3779302C207D58FA28663FCE7001C
S1132DD0B2979306F4FF63E7C70063F5E700930631
S1132DE0E4FFB2973387E740335397029317060102
S1132DF0C183338567021A84B3779702139702015C
S1132E004183C207D98F63FCA700B2971304F3FF71
S1132E1063E7C70063F5A7001304E3FFB297C20694
S1132E20C18E2244898F224593D20601139706014D
S1132E3033838202418313D405013305A702330788
S1132E40E402B30254021A971354050122976374DF
S1132E50670041639A92135307019A9241637D1369
S1132E60337767004207337565003A9563E6570088
S1132E706396571A36871DC9B2971387F6FF63E125
S1132E80C70263E65700639A571863FDA5001387CA
S1132E90E6FF93961500B3B5B6002E96B297B685A5
S1132EA0639457006304B500136717009247938730
S1132EB0F73F635EF00A9376770081CE9376F7004E
S1132EC011466388C6009306470033B7E600BA93F9
S1132ED03687B7060001B3F6D30089CAB70700FFE7
S1132EE0FD17B3F3F3009247938707409306E07FFF
S1132EF063C1F6069396D3010D83558F93D33300A4
S1132F00B706F07FD207F58F8246B203825072442F
S1132F1093D3C3009395F601B3E77700B3E6B70004
S1132F20E2443A85B6851301410282809246014506
S1132F30FD1636C2B9B32247A2839A863AC03E87A9
S1132F408D47638EF60A85476382F60C8947E39FB3
S1132F50F6F4814301479307F07F5DB7B2473EC063
S1132F60C5B7B7030800014702C08D46D1BF8546E7
S1132F709D8E13068003634BD6087D46634CD604AE
S1132F8092473356D7009385E741B397B30033177D
S1132F90B700D18F3337E0005D8FB3D3D30093777D
S1132FA0770081CF9377F70091466388D700930623
S1132FB0470033B7E600BA933687B7078000B3F704
S1132FC0F300A1EB9397D3010D835D8F93D333006B
S1132FD081473DB70556B307F64013060002B3D741
S1132FE0F30081456387C60092469385E643B39513
S1132FF0B3004D8F3337E0005D8F81434DB7B70386
S1133000080001479307F07F02C0DDBD81430147FB
S1133010C1B7814301478547E5B5BA86368769B5A7
S1133020B7071000FD175111B3F2B70013D74501CC
S1133030FD8122C426C22A832A842EC01377F77FF7
S113304093D546011305F07FF58FB28493F5F57F90
S1133050FD82631AA700B3E362000545639A030285
S11330606398E50219A06395A5005D8E05450DE200
S11330700545631FB700639DF200631B94008247FC
S1133080638CD7006316070033E562003335A00074
S113309022449244310182800145DDBF370710008C
S11330A061117D1713D34501B372B70022C226C044
S11330B0AA87AA831373F37F13D5F5019304F07FD2
S11330C093D54601758F328493F5F57FFD8263179E
S11330D09300B3E4F200A5C8795525A8639595003B
S11330E0B364C700F5F863120306B3E7F20093B7BD
S11330F0170099E1598E39C2639A07006314D50009
S113310063DD6500630A05027D5521A07D5591C2EA
S1133110368512448244210182806355B300E31A48
S113312005FEDDB7E36057FE639CE200E36C74FCCC
S1133130E3E783FE0145F1BF0545E1BFE5FFD9B7EC
S1133140E3EFE2FCC5BFE38D65F8E39905FA814737
S113315055B73707100061117D1713D34501B372BA
S1133160B70022C226C0AA87AA831373F37F13D59C
S1133170F5019304F07F93D54601758F328493F55E
S1133180F57FFD8263179300B3E4F200A5C80945F7
S113319025A863959500B364C700F5F86312030688
S11331A0B3E7F20093B7170099E1598E39C2639AD5
S11331B007006314D50063DD6500630A05027D55CD
S11331C021A07D5591C2368512448244210182801A
S11331D06355B300E31A05FEDDB7E36057FE639C55
S11331E0E200E36C74FCE3E783FE0145F1BF0545AF
S11331F0E1BFE5FFD9B7E3EFE2FCC5BFE38D65F8B6
S1133200E39905FA814755B7130181FD93D245012E
S113321093D7F50122D01393C50006D226CE93F29C
S1133220F27F3EC42A841353C300638802089307C1
S1133230F07F6387F20E9357D5010E0333E36700E3
S1133240B70780003363F30093153500938212C0EF
S1133250814413D5460193D7F6011394C600137520
S1133260F57F3EC6318071CD9307F07F6304F5147A
S11332709357D6010E045D8CB70780005D8C13173D
S11332803600130515C081473246A246B18E36C0BA
S1133290B386A20036C8850636C293962400DD8E16
S11332A0FD1639466369D612172600001306C6B800
S11332B08A06B2969442B2968286B365A300ADC9DB
S11332C036C632C2630F03021A851AC0EF00903467
S11332D002431246B246130755FFF14763CCE70297
S11332E0F547930585FF998F3313B300B357F40063
S11332F033E36700B315B4009302D0C0B382A24095
S113330081BF1AC0EF001031B246124602431305C2
S11333100502D1B7130385FD331364008145E9BF6A
S1133320B365A30091C9AA859302F07F8D4415B7B4
S113333001438142854431BF01439302F07F8944B4
S113334009BF3367C4003DCF63020404228532CA37
S11333501AC82EC216C0EF00F02B82429245424397
S11333605246930655FFF14763C0D704F547130748
S113337085FF958F3314E400B357F6005D8C331743
S1133380E6009307D0C03385A740F5BD32851ACA3D
S11333902EC816C232C0EF00F0275243C2459242F3
S11333A002461305050275BF130485FD3314860018
S11333B00147C1BF3367C40011CB32871305F07FC7
S11333C08D47D9B50144014585477DBD01441305A9
S11333D0F07F894755BD13D6050193540701B30601
S11333E09602C167FD17FD8D7D8FB303E60236C4D7
S11333F0B386B4023385E5029E96B68293560501E0
S1133400969663F77600B3039602C1629E9216C441
S113341093D20601FD8E7D8DC206AA96E18F1355C7
S11334200401B303F60236CAB386F502B305B50246
S113343013D406019E95A2953306A60263F4750083
S1133440C1631E9693D305011E9632C6416693034B
S1133450F6FFB3F57500B3F67600C205B695B386EC
S1133460B2009352030133737300B303670236CC83
S11334703387E202B386640233845402BA9693D447
S11334800301A69663F3E600329413D6060141675E
S113349022961304F7FFB3846702E18EC206B3F3E6
S11334A083009E96B387F20233036502B30255028A
S11334B03E9313D504012A936373F300BA926247CF
S11334C0A24741657D15BA973377A3004207E98C7B
S11334D0BA943247B3B5B700B697BA943385B400FB
S11334E0B3B6D7003304C500B303D400B3B4E400C7
S11334F0B335B500B3B6D300C58D135303013334CC
S1133500C400558C9A952E94D246A29213D7730177
S113351013949200598C13979700558FDD8333379A
S1133520E0005D8FB7070001A603E18F33677700E2
S1133530DDC793571700058B5D8F9317F4015D8FDB
S1133540058092479387F73F635EF0089376770090
S113355081CE9376F70011466388C6009306470030
S113356033B7E6003A943687B7060001E18E81CA84
S1133570B70700FFFD177D8C92479387074093069A
S1133580E07F63CEF60E9316D4010D83558F0D8024
S1133590B706F07FD2073204F58F31805D8C824705
S11335A09250F244FE07B366F40002543A85B6859D
S11335B0130181028280A2473EC01A842E87A68707
S11335C08946638ED70A8D466384D70A8546E39A73
S11335D0D7F601440147B5A0B24636C0D5B7C247B5
S11335E03EC285B705461D8E93068003E3C3C6FE1F
S11335F0FD4663CAC6049247B355C7009387E741A3
S1133600B316F4003317F700CD8E3337E000558F2F
S11336103354C4009377770081CF9377F7009146B2
S11336206388D7009307470033B7E7003A943E878F
S1133630B7078000E18FA9EB9317D4010D835D8F49
S11336400D808147B1B78556B387F64093050002D4
S1133650B357F40081466307B60092469386E64367
S1133660B316D400558F3337E0005D8F01445DB746
S11336703704080001479307F07F02C011BF0144DB
S113368001479307F07F29B701440147854709B7EC
S1133690370310007D133111B377B30013D74501FD
S11336A026C48E079374F77F1357D501D98F3377C8
S11336B0D30022C613D3460113D4F5010E07935544
S11336C0D6014D8F06C81373F37F9305F07F0E0563
S11336D0FD820E066315B300B365C70099E193C676
S11336E01600B3826440639586226352500E6318B9
S11336F00302B366C700638F06569385F2FF89E918
S11337002A963335A600BA97AA9732858544B9A874
S11337109306F07F639DD2009304F07F79AA930609
S1133720F07F638CD418B7068000558F9685930676
S1133730800363CAB608FD4663C1B60613030002DC
S11337403303B340B3166700B352B60033166600B2
S1133750B3E656003336C000558E3357B7002A9669
S11337603335A6003E97B307A7003285370780009C
S11337707D8F6304071485041307F07F638CE4488A
S1133780370780FF7D17F98F135715000589598D69
S11337901397F701598D85830DA2938605FE930235
S11337A00002B356D7000143638855001303000495
S11337B0B305B3403313B7003366C3003336C000D8
S11337C0558E014769BF598E3336C000DDBF638A09
S11337D0020AB30593408DE4B3E6A700638306426F
S11337E09386F5FF99E63295BA973336C500B297BA
S11337F031BF9302F07F639D5500BA87328529BF9C
S11338009306F07FE30BD3FEB7068000D58FAE8618
S11338109305800363C3D506FD4563CAD5029302AD
S11338200002B382D240B3955700B353D500331589
S11338305500B3E575003335A0004D8DB3D7D700DF
S11338403295BA973336C500B2979A8405B79385F3
S113385006FE93030002B3D5B70081426388760065
S113386093020004B386D240B392D70033E5A2009A
S11338703335A0004D8D8147E1B75D8D3335A00010
S1133880DDBF9386140093F5E67FBDE1B3E6A700A0
S1133890A9E4638C0636B366C70085C22A96BA9734
S11338A03335A600AA97370780007D8F328511C76C
S11338B0370780FF7D17F98F854413777500630DF3
S11338C007341377F50091466308D734130745008E
S11338D03335A700AA973A8581A685D2598EE30D80
S11338E006E20144B707400001459304F07F2DA68A
S11338F09305F07F638EB6302A963335A600BA97C7
S1133900AA971395F7010582518D8583B68475B7FF
S11339106355500C63100308B366C700638C063408
S11339209385F2FF91E93306C5403335C500998F7D
S1133930898F32858544B1A09306F07FE38ED2DC73
S11339409306800363C7B608FD4663CEB60413032B
S113395000023303B340B3166700B352B600331604
S11339606600B3E656003336C000558E3357B700B1
S11339703306C5403335C5003387E740B307A74056
S11339803285B705800033F7B70005DBFD15FD8DE3
S11339902A835DAA9306F07FE381D4F2B706800000
S11339A0558F968571BF938605FE93020002B35628
S11339B0D70001436388550013030004B305B340E3
S11339C03313B7003366C3003336C000558E014746
S11339D045B7598E3336C000DDBF6384020CB30291
S11339E0934095E8B3E5A700638805289385F2FF23
S11339F091E93305A640B307F7403336A600918F0B
S1133A0036840DBF9303F07F639F7200BA873285BB
S1133A109304F07F7DA09305F07FE309B3FEB7051F
S1133A208000CD8F96859302800363C8B206FD4261
S1133A3063CEB20293030002B383B340B392770020
S1133A403354B50033157500B3E282003335A0005A
S1133A5033E5A200B3D7B7003305A640B307F74058
S1133A603336A600918F9A84368421BF938205FE53
S1133A7013040002B3D25700814363888500930383
S1133A800004B385B340B393B70033E5A3003335E3
S1133A90A00033E5A2008147C1B75D8D3335A00096
S1133AA0DDBF9385140093F5E57FA5E933E3A70013
S1133AB0B365C700A1E8631803006383051CBA87D4
S1133AC032853684DDBBE38A05DE3303C540B33279
S1133AD06500B385E740B3855540B7028000B3F273
S1133AE05500638A02003305A640B307F740333616
S1133AF0A600918FF9B73365B30063070518AE8745
S1133B001A8565BB6318030063820518BA8732857A
S1133B10368419B1E38205C0E9B33303C540B33237
S1133B206500B385E740B3855540B7028000B3F222
S1133B305500638A02063303A640B307F7403336C1
S1133B406600B385C7403684ADC52E851AC22EC023
S1133B50D12482451243130785FFFD4763C4E7065A
S1133B6093070002998FB395E500B357F300CD8F07
S1133B703315E30063419708058F13061700FD46CC
S1133B8063C8C60413070002118FB396E700B35548
S1133B90C5003315E500CD8E3335A000558DB3D760
S1133BA0C700814419BB3365B30059FD8147814483
S1133BB0D1A81A852EC21AC0B12C9245024313050E
S1133BC0050251BF930785FDB317F30001455DB7A7
S1133BD005179305000233D7E70081466307B60053
S1133BE093060004918EB396D700558D3335A0000B
S1133BF0598D81477DB7998C370780FF7D17F98FE1
S1133C006DB9BA873285AE844DB9BA87328575B13C
S1133C109304F07F81470145370780007D8F11CBE6
S1133C2085041307F07F6388E406370780FF7D1758
S1133C30F98F1397D7010D81598D1307F07F8D8369
S1133C406399E4005D8D814709C5B7070800014504
S1133C50014413974401B706F07FB207758FB1830F
S1133C607E04D98FC24033E787003244A244BA8528
S1133C7051018280968491B1BA873285968491B538
S1133C8081470145014449BF8147EDBF01450144D6
S1133C90B707400099B98147014561BF13D7450172
S1133CA0B70610009387F6FF1377F77F1306E03FFC
S1133CB0ED8FFD816354E6041306D0416358E6009A
S1133CC0370500801345F5FF2E958280D58F930626
S1133CD03043998E7D46634DD6001307D7BEB39704
S1133CE0E7003355D5005D8D99C93305A040828026
S1133CF013053041198D33D5A700FDB701458280E6
S1133D0013D74501370310009307F3FF1377F77FA9
S1133D101306E03FED8FAA86FD816351E604130686
S1133D20F0410D8E1385F5FF635BC702014585E9FC
S1133D3013063043198EFD45B3E7670063CAC50017
S1133D401305D7BEB397A70033D5C6005D8D828017
S1133D5013053041198D33D5A70082800145828037
S1133D60511106C422C226C021CD9357F54133C454
S1133D70A7001D8C9354F501228569281307E0419F
S1133D80A947098F63C8A702AD47898F5505B35763
S1133D90F4003314A4002685B2075207B1837E05CC
S1133DA0D98FA24033E7A700228512448244BA8502
S1133DB0310182805515B317A40026850144E9BF5B
S1133DC001478147E5BF511122C206C42A8421C19B
S1133DD091201307E041A947098F63C4A702AD47A7
S1133DE0898F5505B357F4003314A400A2402285EB
S1133DF0B20712445207B183B366F700B6853101A6
S1133E008280930755FFB317F4000144C5B7814777
S1133E100147E9BFC1676376F5029307F00FB3B7B3
S1133E20A7008E07130700021D8F3355F50097175F
S1133E300000938727043E95034505003305A740FA
S1133E40828037070001C147E36EE5FCE147D9BF33
S1133E50AA8517D5FF1F032525A601A8AA8517D56E
S1133E60FF1F032565A56F00A07E130141FD06D445
S1133E7022D226D09387B50059472A86636AF7046D
S1133E80C14763E1B7182AC0012D0246C144E14786
S1133E90894517C3FF1F130323179A97C04313873A
S1133EA087FF6301E4185C4054440C44F19BA297DF
S1133EB0D843D4C58CC6136717003285D8C3F12BF9
S1133EC0A25013058400125482541301C10282804B
S1133ED093F487FF63C8071263E6B4122AC06D2BFC
S1133EE09307701F024663F8973813D59400630450
S1133EF00512914763E0A73213D564009305950337
S1133F00939635001305850317C3FF1F1303C30FCF
S1133F109A96C042E11663808602BD4231A063577F
S1133F20072A4044638986005C40F19B33879740AD
S1133F30E3D7E2FEAA850324030197C0FF1F938001
S1133F40200D630D140E5C40BD46F19B33879740F2
S1133F5063C2E634232A1300232813006352073272
S1133F601307F01F6367F72613F787FF210703255D
S1133F7043001A97144393D257008547B3975700C9
S1133F80C98F130587FF48C414C42322F30000C358
S1133F90C0C613D7254005453315E50063E9A70AD4
S1133FA03377F50001EF0605F1993377F5009105B4
S1133FB011E706053377F500910565DFBD432AC295
S1133FC032C0939735003306F30032855C45AE82E8
S1133FD06302F526D8433E84DC47719BB3069740C1
S1133FE063C1D326E3C606FE229754430C4402461B
S1133FF093E6160054C3DCC532858CC779291305B2
S1134000840021A0B1471CC20145A250125482541D
S11340101301C10282809306002093050004130556
S1134020F003DDB5C0478905E39F87E60324030158
S113403097C0FF1F9380C0FDE31714F0832743004C
S113404013D7254005453315E500E3FBA7F4032406
S113405083005840719B63679700B3069740BD4740
S113406063C3D71497D3FF1F9383838483A503006B
S1134070B307E4003EC0FD5697D7FF1F83A7078709
S1134080A6976383D52C8566BD06B697FD76F58F16
S1134090BE8532851AC83AC63EC432C20121FD55D6
S11340A01246A24732474243AA8697D3FF1F9383FF
S11340B023806301B5228245636CB52097C2FF1F3C
S11340C09382C27F83A502008240BE9523A0B200E2
S11340D02E856384D03083A00300FD556389B030FE
S11340E08245B385B6402E9523A0A20093F37600B3
S11340F016CC1ACA3AC863850326B386764085600F
S1134100A10693858000B697B38575409D8DFD10FB
S1134110B3F5150032851EC636C43EC232C02ECE5B
S1134120B52EFD5002469247A246B243424752433F
S1134130E24263011530F245B307D540AE9703A5BB
S113414002002324D30093E71700AA9523A0B2000A
S1134150DCC26301642A3D456370E52A832344007D
S1134160930747FFE19B13F713005D8F58C09543F6
S11341703307F40023227700232477006361F52CAE
S1134180DC42368417C7FF1F13070776144363F313
S1134190B6000CC317C7FF1F1307C774144363FE8D
S11341A0B6120CC31DAA93E714005CC0A294232486
S11341B0930093E61600D4C03285C524A25013059B
S11341C08400125482541301C102828054440C446A
S11341D0F9B993D6970011476374D70E5147636BAF
S11341E0D71A1385C6050E059386B6051A95184188
S11341F06115630DE5145443F19A63F5D70018472C
S1134200E31BE5FE48478327430048C418C400C5A0
S113421040C741B3D14763FEA70C9307400563E74A
S1134220A71813D5C4009305F50693963500130516
S1134230E506D9B9850293F732002105F1C75C453B
S113424041BB0C4413E5140048C0DCC58CC7A294E0
S11342500246232A93002328930093E7160023A6FB
S1134260140023A41400DCC02297328514C335241F
S11342701305840059BB93D534009387840011B986
S1134280A297D843328513671700D8C3392413057E
S11342908400A5BB93E6140054C0A294232A93007F
S11342A0232893009366170023A6140023A4140064
S11342B0D4C0A297328598C3CD2213058400B1B32C
S11342C093D66700138596030E059386860339BF3C
S11342D0630B640E032483005C40F19BB386974018
S11342E063E59700BD47E3C0D7EC32857D220145E5
S11342F029BB9305C505939635001305B50529B16A
S11343001C46FD156395C71893F735006116EDFB40
S113431092470327430093C7F7FFF98F2322F30043
S113432012479316170036C263E6D716638406163F
S113433033F7F60001EB36870607B376F7009102F0
S1134340E5DE3AC29685B5B9C10799B38327430020
S113435089868542B396D200D58F2322F30075B5A2
S1134360B385F600B305B040D205D18132853EC68F
S113437036C42EC232C01D22FD5302469245A246C7
S1134380B24742475243E2426304750AB307D54039
S1134390AE9775B3130740056363D70693D6C7007A
S11343A01385F6060E059386E60689B59307401530
S11343B063E3A70613D5F4009305850793963500A8
S11343C01305750791B697C2FF1F9382224F03A569
S11343D002003E9523A0A200FDB9D200E39D00CEC9
S11343E003248300BA9793E717005CC061BB23A042
S11343F0D300EDB9368479B38547DCC2FDB5130724
S11344004015636ED70493D6F700138586070E050F
S113441093867607E1BB9307405563EEA70413D553
S113442024019305D507939635001305C507E9BC08
S1134430814531B3E1139E97958F814509B3930567
S11344408400328516C41AC232C019241243A2420F
S113445002460324830083A502005C4025B31307AE
S113446040556361D70293D627011385D6070E05FD
S11344709386C607A5BB9306803F9305F0071305F3
S1134480E00759B41305803F9306E00785B38327FB
S1134490430079B5024665BE82808280511122C2F2
S11344A02A842E8597C7FF1F23A4074406C4F52B2F
S11344B0FD576306F500A24012443101828097C77C
S11344C0FF1F83A7E742E5DBA2401CC01244310171
S11344D08280AA8517C5FF1F0325053E09A0411147
S11344E022C42A842E8506C626C2AE84252013063D
S11344F01500B285228532C0EFF03F972A8401C5AA
S11345000246A6855126B2402285224492444101A6
S113451082800000937735002A879DEFB7867F7FDE
S11345209386F6F7FD5510431107B377D600B69777
S1134530D18FD58FE389B7FE8346C7FF0346D7FFE4
S11345408347E7FF098F95C6630206023335F000FF
S11345503A9579158280F9D2834707000507937647
S11345603700F5FB098F1305F7FF82801305D7FF8A
S113457082801305C7FF82800000411122C426C235
S113458006C6AE842AC0093F17C7FF1F1307C7A773
S1134590104785661384F6FE5042058C8247937457
S11345A0C6FF269431807D143204634FD4003E85C7
S11345B081453EC0E53517C7FF1F1307E7A414471D
S11345C08247A696630AD5003E85C13DB240224487
S11345D092440145410182803E85B30580407D3D82
S11345E0FD56824717C7FF1F130707A26307D502AB
S11345F017C6FF1F1306862C14421847818C93E4B8
S113460014003384864044C33E8500C27935B240E9
S1134610224492440545410182803E858145BD3D49
S113462017C7FF1F1307479E14473D4682473307AA
S1134630D540E35BE6F817C6FF1F03266627118DF6
S11346401367170017C6FF1F232AA626D8C2ADBFBB
S1134650EDC1511122C226C02E84AA8406C42D3D68
S11346600326C4FF130784FF17C5FF1F1305C5994D
S11346709377E6FF3303F700832643000C45F19A52
S1134680638A65122322D300058AB305D3002DEA79
S1134690832384FFD04197C2FF1F9382629733071D
S11346A077400C479E97058A6383550E8323C70082
S11346B023A6750023A4B3006309061493E6170028
S11346C054C32320F3009306F01F63EFF60693F61A
S11346D087FFA1064C41AA96904213D35700854701
S11346E0B3976700CD8F938586FF4CC710C75CC115
S11346F098C258C61244A24026858244310171BB37
S1134700D041058A05EAB69797C2FF1F938242906B
S11347108326830093E517003306F700638F560E54
S11347200323C30023A666002324D3004CC31CC266
S113473059BF828093E61700232ED4FE2320F30072
S11347409306F01FE3F5F6F813D69700914663EF4E
S1134750C60813D66700930596038E0513068603D1
S1134760AA959441E1156383D50CD042719A63F5FF
S1134770C7009446E39BD5FECC464CC714C71244ED
S1134780A24098C526858244D8C6310139B375E65E
S11347900326C30083258300B6971244D0C50CC6F4
S11347A093E61700A24054C326853E9782441CC357
S11347B03101E5B1058AB69709EA832584FF0D8F97
S11347C054471047AE9754C690C693E6170054C397
S11347D018C517C7FF1F0327E70DE3EDE7F097C5DB
S11347E0FF1F83A5A5102685493B29B7D14663F051
S11347F0C6029306400563E5C60413D6C7009305B5
S1134800F6068E051306E606A1BFB69711B7930503
S1134810C6058E051306B605A1B758C918C92326BF
S11348205700232457004CC31CC2E9B50323450099
S1134830098685473396C7003366660050C135BF85
S11348409306401563EAC60013D6F700930586075E
S11348508E051306760729B79306405563EAC6000A
S113486013D627019305D6078E051306C607CDBDBB
S11348709305803F1306E007E5B593E6170054C39C
S11348802320F30085BD0000B3C7A5008D8BB306BC
S1134890C500B9E38D4763F1C70413773500AA87D0
S11348A021EB13F7C6FF130607FE63E7C70663F29F
S11348B0E7022E833E868322030011061103232E72
S11348C056FEE36AE6FE7D171D8F719B1107BA97AA
S11348D0BA9563E6D7008280AA87637ED50203C7B0
S11348E0050085078505A38FE7FEE3EAD7FE8280EE
S11348F003C60500850713F73700A38FC7FE850598
S11349004DD303C60500850713F73700A38FC7FEF1
S1134910850579FF79B78280711122C0804183A314
S1134920850083A2C50080C3C04103A3050123A45D
S11349307700C0C3C04923A6570023A86700C0CB93
S1134940804D938747029385450223AA87FE03A4DB
S113495085FF23AC87FE03A4C5FF23AE87FEE3EFE8
S1134960C7FA63F2E7022E833E8683220300110610
S11349701103232E56FEE36AE6FE7D171D8F719BFD
S11349801107BA97BA9563E5D700024411018280F2
S113499003C7050085078505A38FE7FEE3F7D7FE68
S11349A003C7050085078505A38FE7FEE3E2D7FE6D
S11349B0E9BF9C41211122C826C606CA2E84AA84B6
S11349C08DCF984305CB14438DC28C4281C936C424
S11349D03AC23EC0F93FA24612478247B6852685B1
S11349E03AC23EC0B53112478247BA8526853EC0D9
S11349F085318247BE852685A139A2854244D240AD
S1134A002685B2446101A9B197C7FF1F83A7C7EAEE
S1134A10638CA7086C45411126C206C622C4AA8429
S1134A208DC502C08247AE97804319C4A285004059
S1134A302685393965FCEC44824713070008910741
S1134A403EC0E391E7FE26852131AC4099C126851D
S1134A50013103A4841409CC9387C4143EC06309B0
S1134A60F400A28526850040E5368247E39B87FE55
S1134A70EC4899C12685E93E9C5C95C3DC5C26859F
S1134A80829703A4042E01CC0C4099C126851537C6
S1134A90A2852244B24026859244410155BEB240CB
S1134AA02244924441018280828097C3FF1F9383F2
S1134AB063E483A70300511106C42A8385E30145F7
S1134AC081450146814601479302600D7300000051
S1134AD07D57AA87630AE50223A0A3003305F300E8
S1134AE0814501468146014781479302600D730069
S1134AF0000083A703003E9363186500A24023A02F
S1134B00A3003E85310182803920A240B1471CC1F7
S1134B107D553101828017C5FF1F0325E5D98280A9
S1134B20666E6900666E692B000000006E616E009F
S1134B30666E692D00000000D812000056120000B5
S1134B4056120000D0120000561200005612000047
S1134B5056120000561200005612000056120000B1
S1134B6056120000C812000056120000C0120000C5
S1134B705612000056120000E01200005A14000001
S1134B80A21200004E140000A2120000341400000F
S1134B90A2120000A2120000A2120000A212000041
S1134BA0A2120000A2120000A2120000981200003B
S1134BB0A2120000A2120000A2120000A212000021
S1134BC0A21200009812000048150000081200000C
S1134BD00812000008120000081200000812000069
S1134BE00812000008120000081200000812000059
S1134BF00812000008120000081200000812000049
S1134C000812000008120000081200000812000038
S1134C100812000008120000081200000812000028
S1134C200812000008120000081200000812000018
S1134C300812000008120000081200000812000008
S1134C4008120000081200001A1600006E1400007A
S1134C501A160000081200000812000008120000D2
S1134C6008120000081200000812000008120000D8
S1134C7008120000081200000812000008120000C8
S1134C8008120000081200000812000008120000B8
S1134C9008120000B41300000812000008120000FB
S1134CA00812000008120000081200000812000098
S1134CB0081200000812000008120000B4130000DB
S1134CC08A150000B41300001A1600006E140000C8
S1134CD01A16000008120000B413000008120000A5
S1134CE00812000008120000081200000812000058
S1134CF0B41300005A150000081200000812000046
S1134D00A414000008120000B413000008120000EC
S1134D1008120000B4130000000000000000F03F7F
S1134D200000000000002440000000000000594082
S1134D300000000000408F40000000000088C340D5
S1134D4000000000006AF8400000000080842E414A
S1134D5000000000D01263410000000084D7974196
S1134D600000000065CDCD410A48656C6C6F20469B
S1134D707269656E6421000057656C636F6D652010
S1134D80746F20542D4845414420576F726C642140
S1134D90000000000A61206973202564210A0000D4
S1134DA062206973202564210A000000632069736E
S1134DB0202564210A000000212121205041535361
S1134DC02021212100000000212121204641494CBD
S1134DD02021212100000000616674657220415386
S1134DE04D2063206973206368616E676564207475
S1134DF06F202564210A00005AE1FFFF14E2FFFF3F
S1134E0064E1FFFF14E2FFFF06E2FFFF14E2FFFF8D
S1134E1064E1FFFF5AE1FFFF5AE1FFFF06E2FFFFF3
S1134E2064E1FFFF3EE1FFFF3EE1FFFF3EE1FFFFE4
S1134E306AE1FFFF8CE7FFFF8CE7FFFFA4E7FFFFBA
S1134E4086E7FFFF86E7FFFF3CE8FFFFA4E7FFFFDD
S1134E5086E7FFFF3CE8FFFF86E7FFFFA4E7FFFFCD
S1134E6082E7FFFF82E7FFFF82E7FFFF3CE8FFFFE7
S1134E7000010202030303030404040404040404FD
S1134E8005050505050505050505050505050505CE
S1134E9006060606060606060606060606060606AE
S1134EA0060606060606060606060606060606069E
S1134EB0070707070707070707070707070707077E
S1134EC0070707070707070707070707070707076E
S1134ED0070707070707070707070707070707075E
S1134EE0070707070707070707070707070707074E
S1134EF0080808080808080808080808080808082E
S1134F00080808080808080808080808080808081D
S1134F10080808080808080808080808080808080D
S1134F2008080808080808080808080808080808FD
S1134F3008080808080808080808080808080808ED
S1134F4008080808080808080808080808080808DD
S1134F5008080808080808080808080808080808CD
S1134F6008080808080808080808080808080808BD
S1134F70FFFFFFFFFFFFEF7FFFFFFFFFFFFFEFFFDD
S1134F80FB799F501344D33FB3C8608B288AC63F34
S1134F90000000000000F83F61436F63A787D23F21
S1134FA071A379094F930A40000000000000E03F1C
S1134FB01655B5BBB16B0240EF39FAFE422EE63FFF
S1134FC00000000000002C4000000000000024400D
S1134FD00000000000001840000000000000004035
S1134FE0000000000000F03F2D431CEBE2361A3FA6
S1134FF00000000080842E410000000065CDCD41FA
S10B50000000000065CDCDC1E4
S1075008100400206C
S113500C000000000000000000000000040000206C
S113501C040000200C0000200C00002014000020D0
S113502C140000201C0000201C0000202400002080
S113503C240000202C0000202C0000203400002030
S113504C340000203C0000203C00002044000020E0
S113505C440000204C0000204C0000205400002090
S113506C540000205C0000205C0000206400002040
S113507C640000206C0000206C00002074000020F0
S113508C740000207C0000207C00002084000020A0
S113509C840000208C0000208C0000209400002050
S11350AC940000209C0000209C000020A400002000
S11350BCA4000020AC000020AC000020B4000020B0
S11350CCB4000020BC000020BC000020C400002060
S11350DCC4000020CC000020CC000020D400002010
S11350ECD4000020DC000020DC000020E4000020C0
S11350FCE4000020EC000020EC000020F400002070
S113510CF4000020FC000020FC000020040100201E
S113511C040100200C0100200C01002014010020CB
S113512C140100201C0100201C010020240100207B
S113513C240100202C0100202C010020340100202B
S113514C340100203C0100203C01002044010020DB
S113515C440100204C0100204C010020540100208B
S113516C540100205C0100205C010020640100203B
S113517C640100206C0100206C01002074010020EB
S113518C740100207C0100207C010020840100209B
S113519C840100208C0100208C010020940100204B
S11351AC940100209C0100209C010020A4010020FB
S11351BCA4010020AC010020AC010020B4010020AB
S11351CCB4010020BC010020BC010020C40100205B
S11351DCC4010020CC010020CC010020D40100200B
S11351ECD4010020DC010020DC010020E4010020BB
S11351FCE4010020EC010020EC010020F40100206B
S113520CF4010020FC010020FC0100200402002019
S113521C040200200C0200200C02002014020020C6
S113522C140200201C0200201C0200202402002076
S113523C240200202C0200202C0200203402002026
S113524C340200203C0200203C02002044020020D6
S113525C440200204C0200204C0200205402002086
S113526C540200205C0200205C0200206402002036
S113527C640200206C0200206C02002074020020E6
S113528C740200207C0200207C0200208402002096
S113529C840200208C0200208C0200209402002046
S11352AC940200209C0200209C020020A4020020F6
S11352BCA4020020AC020020AC020020B4020020A6
S11352CCB4020020BC020020BC020020C402002056
S11352DCC4020020CC020020CC020020D402002006
S11352ECD4020020DC020020DC020020E4020020B6
S11352FCE4020020EC020020EC020020F402002066
S113530CF4020020FC020020FC0200200403002014
S113531C040300200C0300200C03002014030020C1
S113532C140300201C0300201C0300202403002071
S113533C240300202C0300202C0300203403002021
S113534C340300203C0300203C03002044030020D1
S113535C440300204C0300204C0300205403002081
S113536C540300205C0300205C0300206403002031
S113537C640300206C0300206C03002074030020E1
S113538C740300207C0300207C0300208403002091
S113539C840300208C0300208C0300209403002041
S11353AC940300209C0300209C030020A4030020F1
S11353BCA4030020AC030020AC030020B4030020A1
S11353CCB4030020BC030020BC030020C403002051
S11353DCC4030020CC030020CC030020D403002001
S11353ECD4030020DC030020DC030020E4030020B1
S11353FCE4030020EC030020EC030020F403002061
S113540CF4030020FC030020FC0300200000000037
S113541C00000000FC06002064070020CC070020DC
S113542C000000000000000000000000000000006C
S113543C000000000000000000000000000000005C
S113544C000000000000000000000000000000004C
S113545C000000000000000000000000000000003C
S113546C000000000000000000000000000000002C
S113547C000000000000000000000000000000001C
S113548C000000000000000000000000000000000C
S113549C00000000000000000000000000000000FC
S11354AC00000000000000000000000000000000EC
S11354BC00000000000000000100000000000000DB
S11354CC0E33CDAB34126DE6ECDE05000B000000A0
S11354DC00000000000000000000000000000000BC
S11354EC00000000000000000000000000000000AC
S11354FC000000000000000000000000000000009C
S113550C000000000000000000000000000000008B
S113583C0000000000000000100000000000000048
S113584C017A5200017C01011B0D020024000000AE
S113585C18000000861500E06A03000000420E08E0
S113586C44880189020380010AC842C9420E0042DD
S113587C0B0000001000000000000000017A520030
S113588C017C01011B0D0200200000001800000027
S113589CB41800E05403000000420E0C4488018943
S10F58AC0202B40AC842C9420E00420BBA
S10F58B8FFFFFFFF0000020010040020AE
S9030000FC
